{
  "_format": "hh-sol-artifact-1",
  "contractName": "WavePortal",
  "sourceName": "contracts/WavePortal.sol",
  "abi": [
    {
      "inputs": [],
      "stateMutability": "nonpayable",
      "type": "constructor"
    },
    {
      "inputs": [],
      "name": "getTotalWaves",
      "outputs": [
        {
          "internalType": "uint256",
          "name": "",
          "type": "uint256"
        }
      ],
      "stateMutability": "view",
      "type": "function"
    },
    {
      "inputs": [],
      "name": "listWavers",
      "outputs": [],
      "stateMutability": "view",
      "type": "function"
    },
    {
      "inputs": [],
      "name": "wave",
      "outputs": [],
      "stateMutability": "nonpayable",
      "type": "function"
    }
  ],
  "bytecode": "0x608060405234801561001057600080fd5b5061003c60405180606001604052806025815260200161096c6025913961004160201b6102571760201c565b6101c4565b6100dd816040516024016100559190610142565b6040516020818303038152906040527f41304fac000000000000000000000000000000000000000000000000000000007bffffffffffffffffffffffffffffffffffffffffffffffffffffffff19166020820180517bffffffffffffffffffffffffffffffffffffffffffffffffffffffff83818316178352505050506100e060201b60201c565b50565b60008151905060006a636f6e736f6c652e6c6f679050602083016000808483855afa5050505050565b600061011482610164565b61011e818561016f565b935061012e818560208601610180565b610137816101b3565b840191505092915050565b6000602082019050818103600083015261015c8184610109565b905092915050565b600081519050919050565b600082825260208201905092915050565b60005b8381101561019e578082015181840152602081019050610183565b838111156101ad576000848401525b50505050565b6000601f19601f8301169050919050565b610799806101d36000396000f3fe608060405234801561001057600080fd5b50600436106100415760003560e01c80636fe15b4414610046578063883a6e39146100505780639a2cdc081461005a575b600080fd5b61004e610078565b005b610058610135565b005b61006261020c565b60405161006f91906105de565b60405180910390f35b600160008082825461008a9190610615565b925050819055506001339080600181540180825580915050600190039060005260206000200160009091909190916101000a81548173ffffffffffffffffffffffffffffffffffffffff021916908373ffffffffffffffffffffffffffffffffffffffff1602179055506101336040518060400160405280600d81526020017f2573206861732077617665642100000000000000000000000000000000000000815250336102f0565b565b6101796040518060400160405280601881526020017f5765204861766520256420746f74616c2077617665727321000000000000000081525060018054905061038c565b60005b600180549050811015610209576101f6600182815481106101c6577f4e487b7100000000000000000000000000000000000000000000000000000000600052603260045260246000fd5b9060005260206000200160009054906101000a900473ffffffffffffffffffffffffffffffffffffffff16610428565b8080610201906106da565b91505061017c565b50565b600061024f6040518060400160405280601781526020017f5765204861766520256420746f74616c2077617665732100000000000000000081525060005461038c565b600054905090565b6102ed8160405160240161026b919061055c565b6040516020818303038152906040527f41304fac000000000000000000000000000000000000000000000000000000007bffffffffffffffffffffffffffffffffffffffffffffffffffffffff19166020820180517bffffffffffffffffffffffffffffffffffffffffffffffffffffffff83818316178352505050506104c1565b50565b610388828260405160240161030692919061057e565b6040516020818303038152906040527f319af333000000000000000000000000000000000000000000000000000000007bffffffffffffffffffffffffffffffffffffffffffffffffffffffff19166020820180517bffffffffffffffffffffffffffffffffffffffffffffffffffffffff83818316178352505050506104c1565b5050565b61042482826040516024016103a29291906105ae565b6040516020818303038152906040527f9710a9d0000000000000000000000000000000000000000000000000000000007bffffffffffffffffffffffffffffffffffffffffffffffffffffffff19166020820180517bffffffffffffffffffffffffffffffffffffffffffffffffffffffff83818316178352505050506104c1565b5050565b6104be8160405160240161043c9190610541565b6040516020818303038152906040527f2c2ecbc2000000000000000000000000000000000000000000000000000000007bffffffffffffffffffffffffffffffffffffffffffffffffffffffff19166020820180517bffffffffffffffffffffffffffffffffffffffffffffffffffffffff83818316178352505050506104c1565b50565b60008151905060006a636f6e736f6c652e6c6f679050602083016000808483855afa5050505050565b6104f38161066b565b82525050565b6000610504826105f9565b61050e8185610604565b935061051e8185602086016106a7565b61052781610752565b840191505092915050565b61053b8161069d565b82525050565b600060208201905061055660008301846104ea565b92915050565b6000602082019050818103600083015261057681846104f9565b905092915050565b6000604082019050818103600083015261059881856104f9565b90506105a760208301846104ea565b9392505050565b600060408201905081810360008301526105c881856104f9565b90506105d76020830184610532565b9392505050565b60006020820190506105f36000830184610532565b92915050565b600081519050919050565b600082825260208201905092915050565b60006106208261069d565b915061062b8361069d565b9250827fffffffffffffffffffffffffffffffffffffffffffffffffffffffffffffffff038211156106605761065f610723565b5b828201905092915050565b60006106768261067d565b9050919050565b600073ffffffffffffffffffffffffffffffffffffffff82169050919050565b6000819050919050565b60005b838110156106c55780820151818401526020810190506106aa565b838111156106d4576000848401525b50505050565b60006106e58261069d565b91507fffffffffffffffffffffffffffffffffffffffffffffffffffffffffffffffff82141561071857610717610723565b5b600182019050919050565b7f4e487b7100000000000000000000000000000000000000000000000000000000600052601160045260246000fd5b6000601f19601f830116905091905056fea2646970667358221220927436d7101a3dd7807f79f405dd6f4af09378b709b5ab49fa2e52dfe95aa08564736f6c63430008040033596f20796f2c2074686973204a6f736570204275696c64696e6720636f6f6c207374756666",
  "linkReferences": {},
  "deployedLinkReferences": {}
}